{
  "contractName": "SlyDeFi",
  "abi": [
    {
      "inputs": [],
      "stateMutability": "nonpayable",
      "type": "constructor"
    },
    {
      "inputs": [
        {
          "internalType": "uint256",
          "name": "thisblock",
          "type": "uint256"
        },
        {
          "internalType": "uint256",
          "name": "lastblock",
          "type": "uint256"
        }
      ],
      "name": "DoingUpkeepOrNoCheck",
      "type": "error"
    },
    {
      "inputs": [
        {
          "internalType": "uint256",
          "name": "requested",
          "type": "uint256"
        },
        {
          "internalType": "uint256",
          "name": "required",
          "type": "uint256"
        }
      ],
      "name": "SmallerThanMin",
      "type": "error"
    },
    {
      "inputs": [
        {
          "internalType": "uint16",
          "name": "endDay",
          "type": "uint16"
        },
        {
          "internalType": "address",
          "name": "user",
          "type": "address"
        }
      ],
      "name": "UserAlreadyHasPositionEndingOnThisDay",
      "type": "error"
    },
    {
      "anonymous": false,
      "inputs": [
        {
          "indexed": true,
          "internalType": "address",
          "name": "owner",
          "type": "address"
        },
        {
          "indexed": true,
          "internalType": "address",
          "name": "approved",
          "type": "address"
        },
        {
          "indexed": true,
          "internalType": "uint256",
          "name": "tokenId",
          "type": "uint256"
        }
      ],
      "name": "Approval",
      "type": "event"
    },
    {
      "anonymous": false,
      "inputs": [
        {
          "indexed": true,
          "internalType": "address",
          "name": "owner",
          "type": "address"
        },
        {
          "indexed": true,
          "internalType": "address",
          "name": "operator",
          "type": "address"
        },
        {
          "indexed": false,
          "internalType": "bool",
          "name": "approved",
          "type": "bool"
        }
      ],
      "name": "ApprovalForAll",
      "type": "event"
    },
    {
      "anonymous": false,
      "inputs": [
        {
          "indexed": true,
          "internalType": "address",
          "name": "previousOwner",
          "type": "address"
        },
        {
          "indexed": true,
          "internalType": "address",
          "name": "newOwner",
          "type": "address"
        }
      ],
      "name": "OwnershipTransferred",
      "type": "event"
    },
    {
      "anonymous": false,
      "inputs": [
        {
          "indexed": false,
          "internalType": "address",
          "name": "account",
          "type": "address"
        }
      ],
      "name": "Paused",
      "type": "event"
    },
    {
      "anonymous": false,
      "inputs": [
        {
          "indexed": true,
          "internalType": "address",
          "name": "from",
          "type": "address"
        },
        {
          "indexed": true,
          "internalType": "address",
          "name": "to",
          "type": "address"
        },
        {
          "indexed": true,
          "internalType": "uint256",
          "name": "tokenId",
          "type": "uint256"
        }
      ],
      "name": "Transfer",
      "type": "event"
    },
    {
      "anonymous": false,
      "inputs": [
        {
          "indexed": false,
          "internalType": "address",
          "name": "account",
          "type": "address"
        }
      ],
      "name": "Unpaused",
      "type": "event"
    },
    {
      "stateMutability": "nonpayable",
      "type": "fallback"
    },
    {
      "inputs": [],
      "name": "aToken",
      "outputs": [
        {
          "internalType": "contract IaToken",
          "name": "",
          "type": "address"
        }
      ],
      "stateMutability": "view",
      "type": "function",
      "constant": true
    },
    {
      "inputs": [],
      "name": "aaveLendingPool",
      "outputs": [
        {
          "internalType": "contract IAaveLendingPool",
          "name": "",
          "type": "address"
        }
      ],
      "stateMutability": "view",
      "type": "function",
      "constant": true
    },
    {
      "inputs": [
        {
          "internalType": "address",
          "name": "to",
          "type": "address"
        },
        {
          "internalType": "uint256",
          "name": "tokenId",
          "type": "uint256"
        }
      ],
      "name": "approve",
      "outputs": [],
      "stateMutability": "nonpayable",
      "type": "function"
    },
    {
      "inputs": [
        {
          "internalType": "address",
          "name": "owner",
          "type": "address"
        }
      ],
      "name": "balanceOf",
      "outputs": [
        {
          "internalType": "uint256",
          "name": "",
          "type": "uint256"
        }
      ],
      "stateMutability": "view",
      "type": "function",
      "constant": true
    },
    {
      "inputs": [
        {
          "internalType": "uint256",
          "name": "tokenId",
          "type": "uint256"
        }
      ],
      "name": "burn",
      "outputs": [],
      "stateMutability": "nonpayable",
      "type": "function"
    },
    {
      "inputs": [],
      "name": "dai",
      "outputs": [
        {
          "internalType": "contract IERC20",
          "name": "",
          "type": "address"
        }
      ],
      "stateMutability": "view",
      "type": "function",
      "constant": true
    },
    {
      "inputs": [],
      "name": "day",
      "outputs": [
        {
          "internalType": "uint16",
          "name": "",
          "type": "uint16"
        }
      ],
      "stateMutability": "view",
      "type": "function",
      "constant": true
    },
    {
      "inputs": [
        {
          "internalType": "uint16",
          "name": "",
          "type": "uint16"
        },
        {
          "internalType": "uint32",
          "name": "",
          "type": "uint32"
        },
        {
          "internalType": "uint256",
          "name": "",
          "type": "uint256"
        }
      ],
      "name": "dayPriceGetPositions",
      "outputs": [
        {
          "internalType": "uint32",
          "name": "",
          "type": "uint32"
        }
      ],
      "stateMutability": "view",
      "type": "function",
      "constant": true
    },
    {
      "inputs": [
        {
          "internalType": "uint16",
          "name": "",
          "type": "uint16"
        },
        {
          "internalType": "uint64",
          "name": "",
          "type": "uint64"
        }
      ],
      "name": "dayPriceTVL",
      "outputs": [
        {
          "internalType": "uint128",
          "name": "",
          "type": "uint128"
        }
      ],
      "stateMutability": "view",
      "type": "function",
      "constant": true
    },
    {
      "inputs": [
        {
          "internalType": "uint256",
          "name": "tokenId",
          "type": "uint256"
        }
      ],
      "name": "getApproved",
      "outputs": [
        {
          "internalType": "address",
          "name": "",
          "type": "address"
        }
      ],
      "stateMutability": "view",
      "type": "function",
      "constant": true
    },
    {
      "inputs": [
        {
          "internalType": "uint32",
          "name": "",
          "type": "uint32"
        }
      ],
      "name": "getPositionById",
      "outputs": [
        {
          "internalType": "uint32",
          "name": "id",
          "type": "uint32"
        },
        {
          "internalType": "address",
          "name": "owner",
          "type": "address"
        },
        {
          "internalType": "uint16",
          "name": "start",
          "type": "uint16"
        },
        {
          "internalType": "uint16",
          "name": "end",
          "type": "uint16"
        },
        {
          "internalType": "uint16",
          "name": "shares",
          "type": "uint16"
        },
        {
          "internalType": "uint128",
          "name": "baseValue",
          "type": "uint128"
        },
        {
          "internalType": "string",
          "name": "imghash",
          "type": "string"
        }
      ],
      "stateMutability": "view",
      "type": "function",
      "constant": true
    },
    {
      "inputs": [
        {
          "internalType": "address",
          "name": "",
          "type": "address"
        }
      ],
      "name": "isActive",
      "outputs": [
        {
          "internalType": "bool",
          "name": "",
          "type": "bool"
        }
      ],
      "stateMutability": "view",
      "type": "function",
      "constant": true
    },
    {
      "inputs": [
        {
          "internalType": "address",
          "name": "owner",
          "type": "address"
        },
        {
          "internalType": "address",
          "name": "operator",
          "type": "address"
        }
      ],
      "name": "isApprovedForAll",
      "outputs": [
        {
          "internalType": "bool",
          "name": "",
          "type": "bool"
        }
      ],
      "stateMutability": "view",
      "type": "function",
      "constant": true
    },
    {
      "inputs": [
        {
          "internalType": "uint32",
          "name": "",
          "type": "uint32"
        }
      ],
      "name": "isPositionInWinArray",
      "outputs": [
        {
          "internalType": "bool",
          "name": "",
          "type": "bool"
        }
      ],
      "stateMutability": "view",
      "type": "function",
      "constant": true
    },
    {
      "inputs": [],
      "name": "lastETHPrice",
      "outputs": [
        {
          "internalType": "uint64",
          "name": "",
          "type": "uint64"
        }
      ],
      "stateMutability": "view",
      "type": "function",
      "constant": true
    },
    {
      "inputs": [],
      "name": "name",
      "outputs": [
        {
          "internalType": "string",
          "name": "",
          "type": "string"
        }
      ],
      "stateMutability": "view",
      "type": "function",
      "constant": true
    },
    {
      "inputs": [],
      "name": "owner",
      "outputs": [
        {
          "internalType": "address",
          "name": "",
          "type": "address"
        }
      ],
      "stateMutability": "view",
      "type": "function",
      "constant": true
    },
    {
      "inputs": [
        {
          "internalType": "uint256",
          "name": "tokenId",
          "type": "uint256"
        }
      ],
      "name": "ownerOf",
      "outputs": [
        {
          "internalType": "address",
          "name": "",
          "type": "address"
        }
      ],
      "stateMutability": "view",
      "type": "function",
      "constant": true
    },
    {
      "inputs": [],
      "name": "paused",
      "outputs": [
        {
          "internalType": "bool",
          "name": "",
          "type": "bool"
        }
      ],
      "stateMutability": "view",
      "type": "function",
      "constant": true
    },
    {
      "inputs": [],
      "name": "posId",
      "outputs": [
        {
          "internalType": "uint32",
          "name": "",
          "type": "uint32"
        }
      ],
      "stateMutability": "view",
      "type": "function",
      "constant": true
    },
    {
      "inputs": [],
      "name": "renounceOwnership",
      "outputs": [],
      "stateMutability": "nonpayable",
      "type": "function"
    },
    {
      "inputs": [
        {
          "internalType": "address",
          "name": "from",
          "type": "address"
        },
        {
          "internalType": "address",
          "name": "to",
          "type": "address"
        },
        {
          "internalType": "uint256",
          "name": "tokenId",
          "type": "uint256"
        }
      ],
      "name": "safeTransferFrom",
      "outputs": [],
      "stateMutability": "nonpayable",
      "type": "function"
    },
    {
      "inputs": [
        {
          "internalType": "address",
          "name": "from",
          "type": "address"
        },
        {
          "internalType": "address",
          "name": "to",
          "type": "address"
        },
        {
          "internalType": "uint256",
          "name": "tokenId",
          "type": "uint256"
        },
        {
          "internalType": "bytes",
          "name": "_data",
          "type": "bytes"
        }
      ],
      "name": "safeTransferFrom",
      "outputs": [],
      "stateMutability": "nonpayable",
      "type": "function"
    },
    {
      "inputs": [
        {
          "internalType": "address",
          "name": "operator",
          "type": "address"
        },
        {
          "internalType": "bool",
          "name": "approved",
          "type": "bool"
        }
      ],
      "name": "setApprovalForAll",
      "outputs": [],
      "stateMutability": "nonpayable",
      "type": "function"
    },
    {
      "inputs": [],
      "name": "symbol",
      "outputs": [
        {
          "internalType": "string",
          "name": "",
          "type": "string"
        }
      ],
      "stateMutability": "view",
      "type": "function",
      "constant": true
    },
    {
      "inputs": [],
      "name": "totalDepositedDai",
      "outputs": [
        {
          "internalType": "uint128",
          "name": "",
          "type": "uint128"
        }
      ],
      "stateMutability": "view",
      "type": "function",
      "constant": true
    },
    {
      "inputs": [
        {
          "internalType": "address",
          "name": "from",
          "type": "address"
        },
        {
          "internalType": "address",
          "name": "to",
          "type": "address"
        },
        {
          "internalType": "uint256",
          "name": "tokenId",
          "type": "uint256"
        }
      ],
      "name": "transferFrom",
      "outputs": [],
      "stateMutability": "nonpayable",
      "type": "function"
    },
    {
      "inputs": [
        {
          "internalType": "address",
          "name": "newOwner",
          "type": "address"
        }
      ],
      "name": "transferOwnership",
      "outputs": [],
      "stateMutability": "nonpayable",
      "type": "function"
    },
    {
      "inputs": [
        {
          "internalType": "address",
          "name": "",
          "type": "address"
        }
      ],
      "name": "userDepositedDai",
      "outputs": [
        {
          "internalType": "uint256",
          "name": "",
          "type": "uint256"
        }
      ],
      "stateMutability": "view",
      "type": "function",
      "constant": true
    },
    {
      "inputs": [
        {
          "internalType": "address",
          "name": "",
          "type": "address"
        },
        {
          "internalType": "uint16",
          "name": "",
          "type": "uint16"
        }
      ],
      "name": "userHasTimeEndPosition",
      "outputs": [
        {
          "internalType": "bool",
          "name": "",
          "type": "bool"
        }
      ],
      "stateMutability": "view",
      "type": "function",
      "constant": true
    },
    {
      "inputs": [
        {
          "internalType": "address",
          "name": "",
          "type": "address"
        },
        {
          "internalType": "uint256",
          "name": "",
          "type": "uint256"
        }
      ],
      "name": "userPositions",
      "outputs": [
        {
          "internalType": "uint32",
          "name": "",
          "type": "uint32"
        }
      ],
      "stateMutability": "view",
      "type": "function",
      "constant": true
    },
    {
      "inputs": [
        {
          "internalType": "address",
          "name": "",
          "type": "address"
        }
      ],
      "name": "userWinnings",
      "outputs": [
        {
          "internalType": "uint256",
          "name": "",
          "type": "uint256"
        }
      ],
      "stateMutability": "view",
      "type": "function",
      "constant": true
    },
    {
      "stateMutability": "payable",
      "type": "receive",
      "payable": true
    },
    {
      "inputs": [
        {
          "internalType": "address",
          "name": "_erc",
          "type": "address"
        }
      ],
      "name": "setERCAllowance",
      "outputs": [
        {
          "internalType": "bool",
          "name": "",
          "type": "bool"
        }
      ],
      "stateMutability": "nonpayable",
      "type": "function"
    },
    {
      "inputs": [
        {
          "internalType": "uint32[30]",
          "name": "_graph",
          "type": "uint32[30]"
        },
        {
          "internalType": "uint128",
          "name": "_value",
          "type": "uint128"
        },
        {
          "internalType": "uint16",
          "name": "_end",
          "type": "uint16"
        },
        {
          "internalType": "string",
          "name": "_imghash",
          "type": "string"
        }
      ],
      "name": "submitPosition",
      "outputs": [
        {
          "internalType": "bool",
          "name": "",
          "type": "bool"
        }
      ],
      "stateMutability": "payable",
      "type": "function",
      "payable": true
    },
    {
      "inputs": [
        {
          "internalType": "address",
          "name": "_beneficiary",
          "type": "address"
        }
      ],
      "name": "withdraw",
      "outputs": [],
      "stateMutability": "nonpayable",
      "type": "function"
    },
    {
      "inputs": [
        {
          "internalType": "bytes",
          "name": "",
          "type": "bytes"
        }
      ],
      "name": "performUpkeep",
      "outputs": [],
      "stateMutability": "nonpayable",
      "type": "function"
    },
    {
      "inputs": [
        {
          "internalType": "bytes",
          "name": "",
          "type": "bytes"
        }
      ],
      "name": "checkUpkeep",
      "outputs": [
        {
          "internalType": "bool",
          "name": "upkeepNeeded",
          "type": "bool"
        },
        {
          "internalType": "bytes",
          "name": "upkeepData",
          "type": "bytes"
        }
      ],
      "stateMutability": "view",
      "type": "function",
      "constant": true
    },
    {
      "inputs": [
        {
          "internalType": "uint256",
          "name": "_tokenIdtoBurn",
          "type": "uint256"
        }
      ],
      "name": "burnToken",
      "outputs": [
        {
          "internalType": "bool",
          "name": "",
          "type": "bool"
        }
      ],
      "stateMutability": "nonpayable",
      "type": "function"
    },
    {
      "inputs": [],
      "name": "withdrawWinnings",
      "outputs": [],
      "stateMutability": "payable",
      "type": "function",
      "payable": true
    },
    {
      "inputs": [],
      "name": "pause",
      "outputs": [],
      "stateMutability": "nonpayable",
      "type": "function"
    },
    {
      "inputs": [],
      "name": "unpause",
      "outputs": [],
      "stateMutability": "nonpayable",
      "type": "function"
    },
    {
      "inputs": [
        {
          "internalType": "bytes4",
          "name": "interfaceId",
          "type": "bytes4"
        }
      ],
      "name": "supportsInterface",
      "outputs": [
        {
          "internalType": "bool",
          "name": "",
          "type": "bool"
        }
      ],
      "stateMutability": "view",
      "type": "function",
      "constant": true
    },
    {
      "inputs": [
        {
          "internalType": "uint256",
          "name": "tokenId",
          "type": "uint256"
        }
      ],
      "name": "tokenURI",
      "outputs": [
        {
          "internalType": "string",
          "name": "",
          "type": "string"
        }
      ],
      "stateMutability": "view",
      "type": "function",
      "constant": true
    },
    {
      "inputs": [
        {
          "internalType": "address",
          "name": "_who",
          "type": "address"
        }
      ],
      "name": "isUserActive",
      "outputs": [
        {
          "internalType": "bool",
          "name": "",
          "type": "bool"
        }
      ],
      "stateMutability": "view",
      "type": "function",
      "constant": true
    },
    {
      "inputs": [
        {
          "internalType": "address",
          "name": "_who",
          "type": "address"
        }
      ],
      "name": "getUserPositions",
      "outputs": [
        {
          "internalType": "uint32[]",
          "name": "positionIDs",
          "type": "uint32[]"
        }
      ],
      "stateMutability": "view",
      "type": "function",
      "constant": true
    },
    {
      "inputs": [
        {
          "internalType": "uint32",
          "name": "_id",
          "type": "uint32"
        }
      ],
      "name": "getsPosition",
      "outputs": [
        {
          "components": [
            {
              "internalType": "uint32",
              "name": "id",
              "type": "uint32"
            },
            {
              "internalType": "address",
              "name": "owner",
              "type": "address"
            },
            {
              "internalType": "uint32[30]",
              "name": "graph",
              "type": "uint32[30]"
            },
            {
              "internalType": "uint16",
              "name": "start",
              "type": "uint16"
            },
            {
              "internalType": "uint16",
              "name": "end",
              "type": "uint16"
            },
            {
              "internalType": "uint16",
              "name": "shares",
              "type": "uint16"
            },
            {
              "internalType": "uint128",
              "name": "baseValue",
              "type": "uint128"
            },
            {
              "internalType": "string",
              "name": "imghash",
              "type": "string"
            }
          ],
          "internalType": "struct SlyDeFi.Position",
          "name": "position",
          "type": "tuple"
        }
      ],
      "stateMutability": "view",
      "type": "function",
      "constant": true
    }
  ],
  "bytecode": "0x60c060405260178054600160a060020a0319908116721b3b4d0f3714ca98ba10f6042daebf0b1b7b6f1790915560188054821673639cb7b21ee2161df9c882483c9d55c90c20ca3e17905560198054909116739198f13b08e299d85e096929fa9781a1e3d5d8271790553480156200007657600080fd5b506040518060400160405280600881526020017f536c7944652e46690000000000000000000000000000000000000000000000008152506040518060400160405280600581526020017f534c5944450000000000000000000000000000000000000000000000000000008152506200010f62000100620001be640100000000026401000000009004565b640100000000620001c2810204565b6001805581516200012890600290602085019062000212565b5080516200013e90600390602084019062000212565b50506008805460ff1916905550600a80546201000165ffffffffffff19909116179055683635c9adc5dea0000060805261167d60a05260138054604060020a608060020a0319166801000000000000000017905560168054600160a060020a031916730715a7794a1dc8e42615f059dd6e406a6594651a1790556200030e565b3390565b60008054600160a060020a03838116600160a060020a0319831681178455604051919092169283917f8be0079c531659141344cd1fd0a4f28419497f9722a3daafe3b4186f6b6457e09190a35050565b8280546200022090620002b8565b90600052602060002090601f0160209004810192826200024457600085556200028f565b82601f106200025f57805160ff19168380011785556200028f565b828001600101855582156200028f579182015b828111156200028f57825182559160200191906001019062000272565b506200029d929150620002a1565b5090565b5b808211156200029d5760008155600101620002a2565b600281046001821680620002cd57607f821691505b6020821081141562000308577f4e487b7100000000000000000000000000000000000000000000000000000000600052602260045260246000fd5b50919050565b60805160a0516144db620003426000396000818161111001526117dc01526000818161216b01526121c001526144db6000f3fe60806040526004361061029e576000357c0100000000000000000000000000000000000000000000000000000000900480638456cb591161016c578063c87b56dd116100de578063e985e9c511610097578063e985e9c51461089c578063e9d337b8146108e5578063f2fde38b14610905578063f4b9fa7514610925578063f5d13da014610945578063f9ebbb8114610968576102a5565b8063c87b56dd146107ae578063cc42e83a146107ce578063d0c80566146107d6578063d1c22c3b14610810578063d32b749314610848578063e5790d7214610889576102a5565b8063a0c1f15e11610130578063a0c1f15e146106d4578063a22cb465146106f4578063a815a4d414610714578063aef94ae914610741578063b88d4fde14610761578063bad9e09214610781576102a5565b80638456cb59146106235780638da5cb5b1461063857806395d89b41146106565780639ee20b151461066b5780639f8a13d7146106a4576102a5565b80634585e33b116102105780636352211e116101c95780636352211e146105445780636e04ff0d1461056457806370a0823114610592578063715018a6146105c05780637b47ec1a146105d55780637b76ac91146105f5576102a5565b80634585e33b14610454578063498f4dc11461047457806351cff8d9146104a75780635c975abb146104c75780635e1b4d99146104df5780636059684b14610514576102a5565b80631de80edf116102625780631de80edf1461038557806323b872dd146103b25780632a6bc2dd146103d25780633f4ba83a146103ff57806342842e0e1461041457806342966c6814610434576102a5565b806301ffc9a7146102b457806306fdde03146102e9578063081812fc1461030b578063095ea7b31461034357806309a7fef214610365576102a5565b366102a557005b3480156102b157600080fd5b50005b3480156102c057600080fd5b506102d46102cf366004613993565b6109a3565b60405190151581526020015b60405180910390f35b3480156102f557600080fd5b506102fe6109b4565b6040516102e09190613a08565b34801561031757600080fd5b5061032b610326366004613a1b565b610a46565b604051600160a060020a0390911681526020016102e0565b34801561034f57600080fd5b5061036361035e366004613a4b565b610ae7565b005b34801561037157600080fd5b506102d4610380366004613a75565b610c1f565b34801561039157600080fd5b506103a56103a0366004613aa4565b610d06565b6040516102e09190613ae8565b3480156103be57600080fd5b506103636103cd366004613b87565b610e92565b3480156103de57600080fd5b506103f26103ed366004613a75565b610ec7565b6040516102e09190613bc3565b34801561040b57600080fd5b50610363610f5f565b34801561042057600080fd5b5061036361042f366004613b87565b610f96565b34801561044057600080fd5b5061036361044f366004613a1b565b610fb1565b34801561046057600080fd5b5061036361046f366004613c4f565b61103b565b34801561048057600080fd5b5061049461048f366004613aa4565b611533565b6040516102e09796959493929190613c91565b3480156104b357600080fd5b506103636104c2366004613a75565b611624565b3480156104d357600080fd5b5060085460ff166102d4565b3480156104eb57600080fd5b506104ff6104fa366004613a4b565b6116fa565b60405163ffffffff90911681526020016102e0565b34801561052057600080fd5b506102d461052f366004613aa4565b600d6020526000908152604090205460ff1681565b34801561055057600080fd5b5061032b61055f366004613a1b565b611743565b34801561057057600080fd5b5061058461057f366004613c4f565b6117d1565b6040516102e0929190613cf7565b34801561059e57600080fd5b506105b26105ad366004613a75565b611837565b6040519081526020016102e0565b3480156105cc57600080fd5b506103636118d4565b3480156105e157600080fd5b506102d46105f0366004613a1b565b61190b565b34801561060157600080fd5b50600a546106109061ffff1681565b60405161ffff90911681526020016102e0565b34801561062f57600080fd5b50610363611cfa565b34801561064457600080fd5b50600054600160a060020a031661032b565b34801561066257600080fd5b506102fe611d2f565b34801561067757600080fd5b506102d4610686366004613a75565b600160a060020a03166000908152600b602052604090205460ff1690565b3480156106b057600080fd5b506102d46106bf366004613a75565b600b6020526000908152604090205460ff1681565b3480156106e057600080fd5b5060185461032b90600160a060020a031681565b34801561070057600080fd5b5061036361070f366004613d20565b611d3e565b34801561072057600080fd5b506105b261072f366004613a75565b60126020526000908152604090205481565b34801561074d57600080fd5b506104ff61075c366004613d69565b611e06565b34801561076d57600080fd5b5061036361077c366004613e09565b611e5c565b34801561078d57600080fd5b506105b261079c366004613a75565b60146020526000908152604090205481565b3480156107ba57600080fd5b506102fe6107c9366004613a1b565b611e97565b610363611ea2565b3480156107e257600080fd5b506013546107f79067ffffffffffffffff1681565b60405167ffffffffffffffff90911681526020016102e0565b34801561081c57600080fd5b50601554610830906001608060020a031681565b6040516001608060020a0390911681526020016102e0565b34801561085457600080fd5b50610830610863366004613ec9565b60116020908152600092835260408084209091529082529020546001608060020a031681565b6102d4610897366004613f19565b6120ca565b3480156108a857600080fd5b506102d46108b7366004613fd6565b600160a060020a03918216600090815260076020908152604080832093909416825291909152205460ff1690565b3480156108f157600080fd5b5060195461032b90600160a060020a031681565b34801561091157600080fd5b50610363610920366004613a75565b61289f565b34801561093157600080fd5b5060175461032b90600160a060020a031681565b34801561095157600080fd5b50600a546104ff9062010000900463ffffffff1681565b34801561097457600080fd5b506102d4610983366004614009565b600f60209081526000928352604080842090915290825290205460ff1681565b60006109ae82612954565b92915050565b6060600280546109c390614033565b80601f01602080910402602001604051908101604052809291908181526020018280546109ef90614033565b8015610a3c5780601f10610a1157610100808354040283529160200191610a3c565b820191906000526020600020905b815481529060010190602001808311610a1f57829003601f168201915b5050505050905090565b6000610a51826129ef565b610acb5760405160e560020a62461bcd02815260206004820152602c60248201527f4552433732313a20617070726f76656420717565727920666f72206e6f6e657860448201527f697374656e7420746f6b656e000000000000000000000000000000000000000060648201526084015b60405180910390fd5b50600090815260066020526040902054600160a060020a031690565b6000610af282611743565b905080600160a060020a031683600160a060020a03161415610b7f5760405160e560020a62461bcd02815260206004820152602160248201527f4552433732313a20617070726f76616c20746f2063757272656e74206f776e6560448201527f72000000000000000000000000000000000000000000000000000000000000006064820152608401610ac2565b33600160a060020a0382161480610b9b5750610b9b81336108b7565b610c105760405160e560020a62461bcd02815260206004820152603860248201527f4552433732313a20617070726f76652063616c6c6572206973206e6f74206f7760448201527f6e6572206e6f7220617070726f76656420666f7220616c6c00000000000000006064820152608401610ac2565b610c1a8383612a0c565b505050565b60008054600160a060020a03163314610c4d5760405160e560020a62461bcd028152600401610ac290614071565b600160a060020a038216610c6a57601754600160a060020a031691505b6019546040517f095ea7b3000000000000000000000000000000000000000000000000000000008152600160a060020a03918216600482015260001960248201529083169063095ea7b3906044016020604051808303816000875af1158015610cd7573d6000803e3d6000fd5b505050506040513d601f19601f82011682018060405250810190610cfb91906140a6565b50600190505b919050565b610d0e6137b4565b63ffffffff8281166000908152600e6020908152604080832081516101008101835281549586168152640100000000909504600160a060020a03169285019290925280516103c0810180835292939185019290916001850191601e918390855b82829054906101000a900463ffffffff1663ffffffff1681526020019060040190602082600301049283019260010382029150808411610d6e57505050928452505050600582015461ffff8082166020840152620100008204811660408401526401000000008204166060830152660100000000000090046001608060020a0316608082015260068201805460a090920191610e0990614033565b80601f0160208091040260200160405190810160405280929190818152602001828054610e3590614033565b8015610e825780601f10610e5757610100808354040283529160200191610e82565b820191906000526020600020905b815481529060010190602001808311610e6557829003601f168201915b5050505050815250509050919050565b610e9d335b82612a87565b610ebc5760405160e560020a62461bcd028152600401610ac2906140c3565b610c1a838383612b85565b600160a060020a038116600090815260106020908152604091829020805483518184028101840190945280845260609392830182828015610f5357602002820191906000526020600020906000905b82829054906101000a900463ffffffff1663ffffffff1681526020019060040190602082600301049283019260010382029150808411610f165790505b50505050509050919050565b600054600160a060020a03163314610f8c5760405160e560020a62461bcd028152600401610ac290614071565b610f94612d70565b565b610c1a83838360405180602001604052806000815250611e5c565b610fba33610e97565b61102f5760405160e560020a62461bcd02815260206004820152603060248201527f4552433732314275726e61626c653a2063616c6c6572206973206e6f74206f7760448201527f6e6572206e6f7220617070726f766564000000000000000000000000000000006064820152608401610ac2565b61103881612e0f565b50565b600080601660009054906101000a9004600160a060020a0316600160a060020a031663feaf968c6040518163ffffffff167c010000000000000000000000000000000000000000000000000000000002815260040160a060405180830381865afa1580156110ad573d6000803e3d6000fd5b505050506040513d601f19601f820116820180604052508101906110d1919061413a565b5050601354929450909250829169ffffffffffffffffffff808616700100000000000000000000000000000000909204161490508061115257506013547f0000000000000000000000000000000000000000000000000000000000000000906111509068010000000000000000900467ffffffffffffffff16436141a3565b105b156111aa576013546040517f21a9cb050000000000000000000000000000000000000000000000000000000081524360048201526801000000000000000090910467ffffffffffffffff166024820152604401610ac2565b601380546fffffffffffffffff00000000000000001916680100000000000000004367ffffffffffffffff16021790556111e86305f5e100826141d3565b6013805467ffffffffffffffff191667ffffffffffffffff8316179055600a5461ffff166000908152600c6020908152604080832063ffffffff90941683529281528282208054845181840281018401909552808552929392909183018282801561129e57602002820191906000526020600020906000905b82829054906101000a900463ffffffff1663ffffffff16815260200190600401906020826003010492830192600103820291508084116112615790505b5050505050905060005b81518110156114b2576000600e60008484815181106112c9576112c96141fa565b60209081029190910181015163ffffffff9081168352908201929092526040016000208054909250166112fc57506114a0565b600a5461ffff16600090815260116020908152604080832060135467ffffffffffffffff16845290915290205460058201546001608060020a03918216916113509166010000000000009004166064614213565b61135a9190614242565b61136590600161425c565b60058201805461ffff929092166401000000000265ffff0000000019909216919091179055805463ffffffff166000908152600d6020526040808220805460ff19166001179055601554601854915160e060020a6370a08231028152306004820152601f926001608060020a0390921691600160a060020a0316906370a0823190602401602060405180830381865afa158015611406573d6000803e3d6000fd5b505050506040513d601f19601f8201168201806040525081019061142a9190614287565b61143491906141a3565b61143e91906142a0565b6005830154909150640100000000900461ffff1661145d6064836142a0565b61146791906142b4565b82546401000000009004600160a060020a0316600090815260126020526040812080549091906114989084906142d3565b909155505050505b806114aa816142eb565b9150506112a8565b506013805479ffffffffffffffffffff00000000000000000000000000000000191670010000000000000000000000000000000069ffffffffffffffffffff871602179055600a80546001919060009061151190849061ffff16614306565b92506101000a81548161ffff021916908361ffff160217905550505050505050565b600e6020526000908152604090208054600582015460068301805463ffffffff84169464010000000094859004600160a060020a03169461ffff808616956201000081048216959281049091169366010000000000009091046001608060020a03169291906115a190614033565b80601f01602080910402602001604051908101604052809291908181526020018280546115cd90614033565b801561161a5780601f106115ef5761010080835404028352916020019161161a565b820191906000526020600020905b8154815290600101906020018083116115fd57829003601f168201915b5050505050905087565b600054600160a060020a031633146116515760405160e560020a62461bcd028152600401610ac290614071565b604051600090600160a060020a038316903031908381818185875af1925050503d806000811461169d576040519150601f19603f3d011682016040523d82523d6000602084013e6116a2565b606091505b50509050806116f65760405160e560020a62461bcd02815260206004820152600f60248201527f7472616e73666572206661696c656400000000000000000000000000000000006044820152606401610ac2565b5050565b6010602052816000526040600020818154811061171657600080fd5b9060005260206000209060089182820401919006600402915091509054906101000a900463ffffffff1681565b600081815260046020526040812054600160a060020a0316806109ae5760405160e560020a62461bcd02815260206004820152602960248201527f4552433732313a206f776e657220717565727920666f72206e6f6e657869737460448201527f656e7420746f6b656e00000000000000000000000000000000000000000000006064820152608401610ac2565b6013546000906060907f00000000000000000000000000000000000000000000000000000000000000009061181c9068010000000000000000900467ffffffffffffffff16436141a3565b111561182b5760019150611830565b600091505b9250929050565b6000600160a060020a0382166118b85760405160e560020a62461bcd02815260206004820152602a60248201527f4552433732313a2062616c616e636520717565727920666f7220746865207a6560448201527f726f2061646472657373000000000000000000000000000000000000000000006064820152608401610ac2565b50600160a060020a031660009081526005602052604090205490565b600054600160a060020a031633146119015760405160e560020a62461bcd028152600401610ac290614071565b610f946000612e18565b6000600260015414156119335760405160e560020a62461bcd028152600401610ac290614323565b6002600190815563ffffffff8381166000908152600e6020908152604080832081516101008101835281549586168152640100000000909504600160a060020a03169285019290925280516103c081018083529395929391850192909190840190601e908288855b82829054906101000a900463ffffffff1663ffffffff168152602001906004019060208260030104928301926001038202915080841161199b57505050928452505050600582015461ffff8082166020840152620100008204811660408401526401000000008204166060830152660100000000000090046001608060020a0316608082015260068201805460a090920191611a3690614033565b80601f0160208091040260200160405190810160405280929190818152602001828054611a6290614033565b8015611aaf5780601f10611a8457610100808354040283529160200191611aaf565b820191906000526020600020905b815481529060010190602001808311611a9257829003601f168201915b505050505081525050905033600160a060020a03168160200151600160a060020a031614611b225760405160e560020a62461bcd02815260206004820152601e60248201527f4275726e696e67206120746f6b656e20796f7520646f206e6f74206f776e00006044820152606401610ac2565b611b2b83610fb1565b60195460175460c08301516040517f69328dec000000000000000000000000000000000000000000000000000000008152600160a060020a0392831660048201526001608060020a0390911660248201523360448201529116906369328dec90606401600060405180830381600087803b158015611ba857600080fd5b505af1158015611bbc573d6000803e3d6000fd5b5050505060005b3360009081526010602052604090205463ffffffff82161015611c9a57336000908152601060205260409020805485919063ffffffff8416908110611c0a57611c0a6141fa565b6000918252602090912060088204015460079091166004026101000a900463ffffffff161415611c8857336000908152601060205260409020805463ffffffff8316908110611c5b57611c5b6141fa565b90600052602060002090600891828204019190066004026101000a81549063ffffffff0219169055611c9a565b80611c928161435a565b915050611bc3565b5060c081015133600090815260146020526040812080546001608060020a0390931692909190611ccb9084906141a3565b90915550505163ffffffff166000908152600e60205260409020805463ffffffff191690555050600180805590565b600054600160a060020a03163314611d275760405160e560020a62461bcd028152600401610ac290614071565b610f94612e75565b6060600380546109c390614033565b600160a060020a038216331415611d9a5760405160e560020a62461bcd02815260206004820152601960248201527f4552433732313a20617070726f766520746f2063616c6c6572000000000000006044820152606401610ac2565b336000818152600760209081526040808320600160a060020a03871680855290835292819020805460ff191686151590811790915590519081529192917f17307eab39ab6107e8899845ad3d59bd9653f200f220920489ca2b5937696c31910160405180910390a35050565b600c6020528260005260406000206020528160005260406000208181548110611e2e57600080fd5b906000526020600020906008918282040191900660040292509250509054906101000a900463ffffffff1681565b611e663383612a87565b611e855760405160e560020a62461bcd028152600401610ac2906140c3565b611e9184848484612f00565b50505050565b60606109ae82612f36565b60026001541415611ec85760405160e560020a62461bcd028152600401610ac290614323565b600260015533600090815260126020526040902054611ee657600080fd5b60175460405160e060020a6370a08231028152336004820152600091600160a060020a0316906370a0823190602401602060405180830381865afa158015611f32573d6000803e3d6000fd5b505050506040513d601f19601f82011682018060405250810190611f569190614287565b60195460175433600081815260126020526040908190205490517f69328dec000000000000000000000000000000000000000000000000000000008152600160a060020a0393841660048201526024810191909152604481019190915292935016906369328dec90606401600060405180830381600087803b158015611fdb57600080fd5b505af1158015611fef573d6000803e3d6000fd5b505060175460405160e060020a6370a08231028152336004820152600160a060020a0390911692506370a082319150602401602060405180830381865afa15801561203e573d6000803e3d6000fd5b505050506040513d601f19601f820116820180604052508101906120629190614287565b81106120b35760405160e560020a62461bcd02815260206004820152601160248201527f5769746864726177616c206661696c65640000000000000000000000000000006044820152606401610ac2565b503360009081526012602052604081205560018055565b6000600260015414156120f25760405160e560020a62461bcd028152600401610ac290614323565b6002600155336000908152600f6020908152604080832061ffff88168452909152902054849060ff16801561215f576040517f829cd5ca00000000000000000000000000000000000000000000000000000000815261ffff83166004820152336024820152604401610ac2565b866001608060020a03167f00000000000000000000000000000000000000000000000000000000000000008110156121ec576040517f82897b41000000000000000000000000000000000000000000000000000000008152600481018290527f00000000000000000000000000000000000000000000000000000000000000006024820152604401610ac2565b6121f46137b4565b600a546000906122099061ffff166001614306565b6040805161010081018252600a5462010000900463ffffffff1681523360208201529081018d905261ffff821660608201529091506080810161224c8b84614306565b61ffff168152602001600061ffff1681526020018b6001608060020a0316815260200189898080601f016020809104026020016040519081016040528093929190818152602001838380828437600092018290525093909452505060175460405160e060020a6370a082310281523060048201529395509092600160a060020a0390911691506370a0823190602401602060405180830381865afa1580156122f8573d6000803e3d6000fd5b505050506040513d601f19601f8201168201806040525081019061231c9190614287565b90508260c001516001608060020a031681101561233857600080fd5b60195460175460c08501516040517fe8eda9df000000000000000000000000000000000000000000000000000000008152600160a060020a0392831660048201526001608060020a0390911660248201523060448201526000606482015291169063e8eda9df90608401600060405180830381600087803b1580156123bc57600080fd5b505af11580156123d0573d6000803e3d6000fd5b505033600090815260106020908152604080832088518154600181810184559286528486206008820401805463ffffffff93841660046007909416939093026101000a9283029284021916919091179055895181168552600e84529382902089518154948b0151600160a060020a03166401000000000277ffffffffffffffffffffffffffffffffffffffffffffffff199095169516949094179290921783558701518794509192506124889190830190601e6137ff565b506060820151600582018054608085015160a086015160c08701516001608060020a031666010000000000000275ffffffffffffffffffffffffffffffff0000000000001961ffff928316640100000000021675ffffffffffffffffffffffffffffffffffff0000000019938316620100000263ffffffff19909516929096169190911792909217169290921791909117905560e0820151805161253691600684019160209091019061389b565b5050336000818152600f60209081526040808320608089015161ffff1684528252808320805460ff19166001179055928252600b9052205460ff16905061259257336000908152600b60205260409020805460ff191660011790555b60005b601e61ffff8216101561271157600c60008286606001516125b69190614306565b61ffff1661ffff168152602001908152602001600020600085604001518361ffff16601e81106125e8576125e86141fa565b6020908102919091015163ffffffff90811683528282019390935260409091016000908120600a5481546001810183559183529282206008820401805460079092166004026101000a8086021990921662010000909404909416029190911790915560c085015160608601519091601191612664908590614306565b61ffff1661ffff168152602001908152602001600020600086604001518461ffff16601e8110612696576126966141fa565b602002015163ffffffff1667ffffffffffffffff16815260200190815260200160002060008282829054906101000a90046001608060020a03166126da919061425c565b92506101000a8154816001608060020a0302191690836001608060020a0316021790555080806127099061437e565b915050612595565b5060c0830151601580546000906127329084906001608060020a031661425c565b92506101000a8154816001608060020a0302191690836001608060020a031602179055508260c001516001608060020a03166014600033600160a060020a0316600160a060020a03168152602001908152602001600020600082825461279891906142d3565b9091555050600a546127b790339062010000900463ffffffff166130b4565b600a5460e08401516127d59162010000900463ffffffff16906130be565b600a5433906127ef9062010000900463ffffffff16611743565b600160a060020a0316146128485760405160e560020a62461bcd02815260206004820152601260248201527f4d696e7420556e6e7375636365737366756c00000000000000000000000000006044820152606401610ac2565b6001600a60028282829054906101000a900463ffffffff1661286a9190614396565b92506101000a81548163ffffffff021916908363ffffffff160217905550600196505050505050600180555095945050505050565b600054600160a060020a031633146128cc5760405160e560020a62461bcd028152600401610ac290614071565b600160a060020a03811661294b5760405160e560020a62461bcd02815260206004820152602660248201527f4f776e61626c653a206e6577206f776e657220697320746865207a65726f206160448201527f64647265737300000000000000000000000000000000000000000000000000006064820152608401610ac2565b61103881612e18565b6000600160e060020a031982167f80ac58cd0000000000000000000000000000000000000000000000000000000014806129b75750600160e060020a031982167f5b5e139f00000000000000000000000000000000000000000000000000000000145b806109ae57507f01ffc9a700000000000000000000000000000000000000000000000000000000600160e060020a03198316146109ae565b600090815260046020526040902054600160a060020a0316151590565b6000818152600660205260409020805473ffffffffffffffffffffffffffffffffffffffff1916600160a060020a0384169081179091558190612a4e82611743565b600160a060020a03167f8c5be1e5ebec7d5bd14f71427d1e84f3dd0314c0f7b2291e5b200ac8c7c3b92560405160405180910390a45050565b6000612a92826129ef565b612b075760405160e560020a62461bcd02815260206004820152602c60248201527f4552433732313a206f70657261746f7220717565727920666f72206e6f6e657860448201527f697374656e7420746f6b656e00000000000000000000000000000000000000006064820152608401610ac2565b6000612b1283611743565b905080600160a060020a031684600160a060020a03161480612b4d575083600160a060020a0316612b4284610a46565b600160a060020a0316145b80612b7d5750600160a060020a0380821660009081526007602090815260408083209388168352929052205460ff165b949350505050565b82600160a060020a0316612b9882611743565b600160a060020a031614612c175760405160e560020a62461bcd02815260206004820152602960248201527f4552433732313a207472616e73666572206f6620746f6b656e2074686174206960448201527f73206e6f74206f776e00000000000000000000000000000000000000000000006064820152608401610ac2565b600160a060020a038216612c955760405160e560020a62461bcd028152602060048201526024808201527f4552433732313a207472616e7366657220746f20746865207a65726f2061646460448201527f72657373000000000000000000000000000000000000000000000000000000006064820152608401610ac2565b612ca083838361315b565b612cab600082612a0c565b600160a060020a0383166000908152600560205260408120805460019290612cd49084906141a3565b9091555050600160a060020a0382166000908152600560205260408120805460019290612d029084906142d3565b9091555050600081815260046020526040808220805473ffffffffffffffffffffffffffffffffffffffff1916600160a060020a0386811691821790925591518493918716917fddf252ad1be2c89b69c2b068fc378daa952ba7f163c4a11628f55a4df523b3ef91a4505050565b60085460ff16612dc55760405160e560020a62461bcd02815260206004820152601460248201527f5061757361626c653a206e6f74207061757365640000000000000000000000006044820152606401610ac2565b6008805460ff191690557f5db9ee0a495bf2e6ff9c91a7834c1ba4fdd244a5e8aa4e537bd38aeae4b073aa335b604051600160a060020a03909116815260200160405180910390a1565b611038816131b1565b60008054600160a060020a0383811673ffffffffffffffffffffffffffffffffffffffff19831681178455604051919092169283917f8be0079c531659141344cd1fd0a4f28419497f9722a3daafe3b4186f6b6457e09190a35050565b60085460ff1615612ecb5760405160e560020a62461bcd02815260206004820152601060248201527f5061757361626c653a20706175736564000000000000000000000000000000006044820152606401610ac2565b6008805460ff191660011790557f62e78cea01bee320cd4e420270b5ea74000d11b0c9f74754ebdbfc544b05a258612df23390565b612f0b848484612b85565b612f17848484846131f1565b611e915760405160e560020a62461bcd028152600401610ac2906143b5565b6060612f41826129ef565b612fb65760405160e560020a62461bcd02815260206004820152603160248201527f45524337323155524953746f726167653a2055524920717565727920666f722060448201527f6e6f6e6578697374656e7420746f6b656e0000000000000000000000000000006064820152608401610ac2565b60008281526009602052604081208054612fcf90614033565b80601f0160208091040260200160405190810160405280929190818152602001828054612ffb90614033565b80156130485780601f1061301d57610100808354040283529160200191613048565b820191906000526020600020905b81548152906001019060200180831161302b57829003601f168201915b50505050509050600061306660408051602081019091526000815290565b9050805160001415613079575092915050565b8151156130ab578082604051602001613093929190614412565b60405160208183030381529060405292505050919050565b612b7d84613324565b6116f6828261340d565b6130c7826129ef565b61313c5760405160e560020a62461bcd02815260206004820152602e60248201527f45524337323155524953746f726167653a2055524920736574206f66206e6f6e60448201527f6578697374656e7420746f6b656e0000000000000000000000000000000000006064820152608401610ac2565b60008281526009602090815260409091208251610c1a9284019061389b565b60085460ff1615610c1a5760405160e560020a62461bcd02815260206004820152601060248201527f5061757361626c653a20706175736564000000000000000000000000000000006044820152606401610ac2565b6131ba81613427565b600081815260096020526040902080546131d390614033565b1590506110385760008181526009602052604081206110389161390f565b6000600160a060020a0384163b15613319576040517f150b7a02000000000000000000000000000000000000000000000000000000008152600160a060020a0385169063150b7a029061324e903390899088908890600401614438565b6020604051808303816000875af1925050508015613289575060408051601f3d908101601f1916820190925261328691810190614474565b60015b6132e6573d8080156132b7576040519150601f19603f3d011682016040523d82523d6000602084013e6132bc565b606091505b5080516132de5760405160e560020a62461bcd028152600401610ac2906143b5565b805181602001fd5b600160e060020a0319167f150b7a0200000000000000000000000000000000000000000000000000000000149050612b7d565b506001949350505050565b606061332f826129ef565b6133a45760405160e560020a62461bcd02815260206004820152602f60248201527f4552433732314d657461646174613a2055524920717565727920666f72206e6f60448201527f6e6578697374656e7420746f6b656e00000000000000000000000000000000006064820152608401610ac2565b60006133bb60408051602081019091526000815290565b905060008151116133db5760405180602001604052806000815250613406565b806133e5846134db565b6040516020016133f6929190614412565b6040516020818303038152906040525b9392505050565b6116f682826040518060200160405280600081525061362c565b600061343282611743565b90506134408160008461315b565b61344b600083612a0c565b600160a060020a03811660009081526005602052604081208054600192906134749084906141a3565b9091555050600082815260046020526040808220805473ffffffffffffffffffffffffffffffffffffffff1916905551839190600160a060020a038416907fddf252ad1be2c89b69c2b068fc378daa952ba7f163c4a11628f55a4df523b3ef908390a45050565b60608161351b57505060408051808201909152600181527f3000000000000000000000000000000000000000000000000000000000000000602082015290565b8160005b8115613545578061352f816142eb565b915061353e9050600a836142a0565b915061351f565b60008167ffffffffffffffff81111561356057613560613d95565b6040519080825280601f01601f19166020018201604052801561358a576020820181803683370190505b5090505b8415612b7d5761359f6001836141a3565b91506135ac600a86614491565b6135b79060306142d3565b7f0100000000000000000000000000000000000000000000000000000000000000028183815181106135eb576135eb6141fa565b60200101907effffffffffffffffffffffffffffffffffffffffffffffffffffffffffffff1916908160001a905350613625600a866142a0565b945061358e565b6136368383613662565b61364360008484846131f1565b610c1a5760405160e560020a62461bcd028152600401610ac2906143b5565b600160a060020a0382166136bb5760405160e560020a62461bcd02815260206004820181905260248201527f4552433732313a206d696e7420746f20746865207a65726f20616464726573736044820152606401610ac2565b6136c4816129ef565b156137145760405160e560020a62461bcd02815260206004820152601c60248201527f4552433732313a20746f6b656e20616c7265616479206d696e746564000000006044820152606401610ac2565b6137206000838361315b565b600160a060020a03821660009081526005602052604081208054600192906137499084906142d3565b9091555050600081815260046020526040808220805473ffffffffffffffffffffffffffffffffffffffff1916600160a060020a03861690811790915590518392907fddf252ad1be2c89b69c2b068fc378daa952ba7f163c4a11628f55a4df523b3ef908290a45050565b6040805161010081018252600080825260208201529081016137d4613949565b8152600060208201819052604082018190526060808301829052608083019190915260a09091015290565b60048301918390821561388b5791602002820160005b8382111561385957835183826101000a81548163ffffffff021916908363ffffffff1602179055509260200192600401602081600301049283019260010302613815565b80156138895782816101000a81549063ffffffff0219169055600401602081600301049283019260010302613859565b505b50613897929150613968565b5090565b8280546138a790614033565b90600052602060002090601f0160209004810192826138c9576000855561388b565b82601f106138e257805160ff191683800117855561388b565b8280016001018555821561388b579182015b8281111561388b5782518255916020019190600101906138f4565b50805461391b90614033565b6000825580601f1061392b575050565b601f0160209004906000526020600020908101906110389190613968565b604051806103c00160405280601e906020820280368337509192915050565b5b808211156138975760008155600101613969565b600160e060020a03198116811461103857600080fd5b6000602082840312156139a557600080fd5b81356134068161397d565b60005b838110156139cb5781810151838201526020016139b3565b83811115611e915750506000910152565b600081518084526139f48160208601602086016139b0565b601f01601f19169290920160200192915050565b60208152600061340660208301846139dc565b600060208284031215613a2d57600080fd5b5035919050565b8035600160a060020a0381168114610d0157600080fd5b60008060408385031215613a5e57600080fd5b613a6783613a34565b946020939093013593505050565b600060208284031215613a8757600080fd5b61340682613a34565b803563ffffffff81168114610d0157600080fd5b600060208284031215613ab657600080fd5b61340682613a90565b8060005b601e811015611e9157815163ffffffff16845260209384019390910190600101613ac3565b60208152613aff60208201835163ffffffff169052565b60006020830151613b1b6040840182600160a060020a03169052565b506040830151613b2e6060840182613abf565b50606083015161ffff9081166104208401526080840151811661044084015260a08401511661046083015260c08301516001608060020a031661048083015260e08301516104a080840152612b7d6104c08401826139dc565b600080600060608486031215613b9c57600080fd5b613ba584613a34565b9250613bb360208501613a34565b9150604084013590509250925092565b6020808252825182820181905260009190848201906040850190845b81811015613c0157835163ffffffff1683529284019291840191600101613bdf565b50909695505050505050565b60008083601f840112613c1f57600080fd5b50813567ffffffffffffffff811115613c3757600080fd5b60208301915083602082850101111561183057600080fd5b60008060208385031215613c6257600080fd5b823567ffffffffffffffff811115613c7957600080fd5b613c8585828601613c0d565b90969095509350505050565b63ffffffff88168152600160a060020a0387166020820152600061ffff808816604084015280871660608401528086166080840152506001608060020a03841660a083015260e060c0830152613cea60e08301846139dc565b9998505050505050505050565b8215158152604060208201526000612b7d60408301846139dc565b801515811461103857600080fd5b60008060408385031215613d3357600080fd5b613d3c83613a34565b91506020830135613d4c81613d12565b809150509250929050565b803561ffff81168114610d0157600080fd5b600080600060608486031215613d7e57600080fd5b613d8784613d57565b9250613bb360208501613a90565b60e060020a634e487b7102600052604160045260246000fd5b6040516103c0810167ffffffffffffffff81118282101715613dd257613dd2613d95565b60405290565b604051601f8201601f1916810167ffffffffffffffff81118282101715613e0157613e01613d95565b604052919050565b60008060008060808587031215613e1f57600080fd5b613e2885613a34565b93506020613e37818701613a34565b935060408601359250606086013567ffffffffffffffff80821115613e5b57600080fd5b818801915088601f830112613e6f57600080fd5b813581811115613e8157613e81613d95565b613e93601f8201601f19168501613dd8565b91508082528984828501011115613ea957600080fd5b808484018584013760008482840101525080935050505092959194509250565b60008060408385031215613edc57600080fd5b613ee583613d57565b9150602083013567ffffffffffffffff81168114613d4c57600080fd5b80356001608060020a0381168114610d0157600080fd5b60008060008060006104208688031215613f3257600080fd5b86601f870112613f4157600080fd5b613f49613dae565b806103c0880189811115613f5c57600080fd5b885b81811015613f7d57613f6f81613a90565b845260209384019301613f5e565b50819750613f8a81613f02565b9650505050613f9c6103e08701613d57565b925061040086013567ffffffffffffffff811115613fb957600080fd5b613fc588828901613c0d565b969995985093965092949392505050565b60008060408385031215613fe957600080fd5b613ff283613a34565b915061400060208401613a34565b90509250929050565b6000806040838503121561401c57600080fd5b61402583613a34565b915061400060208401613d57565b60028104600182168061404757607f821691505b6020821081141561406b5760e060020a634e487b7102600052602260045260246000fd5b50919050565b6020808252818101527f4f776e61626c653a2063616c6c6572206973206e6f7420746865206f776e6572604082015260600190565b6000602082840312156140b857600080fd5b815161340681613d12565b60208082526031908201527f4552433732313a207472616e736665722063616c6c6572206973206e6f74206f60408201527f776e6572206e6f7220617070726f766564000000000000000000000000000000606082015260800190565b805169ffffffffffffffffffff81168114610d0157600080fd5b600080600080600060a0868803121561415257600080fd5b61415b86614120565b945060208601519350604086015192506060860151915061417e60808701614120565b90509295509295909350565b60e060020a634e487b7102600052601160045260246000fd5b6000828210156141b5576141b561418a565b500390565b60e060020a634e487b7102600052601260045260246000fd5b600067ffffffffffffffff808416806141ee576141ee6141ba565b92169190910492915050565b60e060020a634e487b7102600052603260045260246000fd5b60006001608060020a03808316818516818304811182151516156142395761423961418a565b02949350505050565b60006001608060020a03808416806141ee576141ee6141ba565b60006001608060020a0380831681851680830382111561427e5761427e61418a565b01949350505050565b60006020828403121561429957600080fd5b5051919050565b6000826142af576142af6141ba565b500490565b60008160001904831182151516156142ce576142ce61418a565b500290565b600082198211156142e6576142e661418a565b500190565b60006000198214156142ff576142ff61418a565b5060010190565b600061ffff80831681851680830382111561427e5761427e61418a565b6020808252601f908201527f5265656e7472616e637947756172643a207265656e7472616e742063616c6c00604082015260600190565b600063ffffffff808316818114156143745761437461418a565b6001019392505050565b600061ffff808316818114156143745761437461418a565b600063ffffffff80831681851680830382111561427e5761427e61418a565b60208082526032908201527f4552433732313a207472616e7366657220746f206e6f6e20455243373231526560408201527f63656976657220696d706c656d656e7465720000000000000000000000000000606082015260800190565b600083516144248184602088016139b0565b83519083019061427e8183602088016139b0565b6000600160a060020a0380871683528086166020840152508360408301526080606083015261446a60808301846139dc565b9695505050505050565b60006020828403121561448657600080fd5b81516134068161397d565b6000826144a0576144a06141ba565b50069056fea26469706673582212201f29d81df3a01e4d3e13c886196c6cc40163b868c51df4d9bc1f9587de90160464736f6c634300080a0033",
  "immutableReferences": {
    "2188": [
      {
        "length": 32,
        "start": 8555
      },
      {
        "length": 32,
        "start": 8640
      }
    ],
    "2190": [
      {
        "length": 32,
        "start": 4368
      },
      {
        "length": 32,
        "start": 6108
      }
    ]
  },
  "source": "// SPDX-License-Identifier: MIT\npragma solidity ^0.8.0;\n\nimport \"@openzeppelin/contracts/token/ERC20/IERC20.sol\";\nimport \"@openzeppelin/contracts/access/Ownable.sol\";\nimport \"@openzeppelin/contracts/security/ReentrancyGuard.sol\";\nimport \"@openzeppelin/contracts/token/ERC721/ERC721.sol\";\n//import \"@openzeppelin/contracts/token/ERC721/extensions/ERC721Enumerable.sol\";\nimport \"@openzeppelin/contracts/token/ERC721/extensions/ERC721URIStorage.sol\";\nimport \"@openzeppelin/contracts/security/Pausable.sol\";\nimport \"@openzeppelin/contracts/token/ERC721/extensions/ERC721Burnable.sol\";\nimport \"@chainlink/contracts/src/v0.8/interfaces/AggregatorV3Interface.sol\";\nimport \"@chainlink/contracts/src/v0.8/interfaces/KeeperCompatibleInterface.sol\";\n\n//import { IConstantFlowAgreementV1 } from \"@superfluid-finance/ethereum-contracts/contracts/interfaces/agreements/IConstantFlowAgreementV1.sol\";\n//import { ISuperTokenFactory } from \"@superfluid-finance/ethereum-contracts/contracts/interfaces/superfluid/ISuperTokenFactory.sol\";\n//import { ISuperfluidToken } from \"@superfluid-finance/ethereum-contracts/contracts/interfaces/superfluid/ISuperfluidToken.sol\";\n//import { SuperTokenFactory } from \"@superfluid-finance/ethereum-contracts/contracts/superfluid/SuperTokenFactory.sol\";\n//import { SuperfluidToken } from \"@superfluid-finance/ethereum-contracts/contracts/superfluid/SuperfluidToken.sol\";\n\n//@author:parseb\n//@title SlyDe.Fi - a preditction game on pooled yeld farming\n//@custom: security-contact @parseb\n\n/* =========== Interfaces ============= */\n\ninterface IaToken {\n    function balanceOf(address _user) external view returns (uint256);\n\n    function redeem(uint256 _amount) external;\n}\n\ninterface IAaveLendingPool {\n    function deposit(\n        address asset,\n        uint256 amount,\n        address onBehalfOf,\n        uint16 referralCode\n    ) external;\n\n    function withdraw(\n        address asset,\n        uint256 amount,\n        address to\n    ) external;\n\n    function getReservesList() external view returns (address[] memory);\n}\n\n/* =========== SlyDeFi Contract Start ============= */\n\ncontract SlyDeFi is\n    Ownable,\n    ReentrancyGuard,\n    ERC721,\n    Pausable,\n    ERC721Burnable,\n    ERC721URIStorage,\n    KeeperCompatibleInterface /// @dev: check just added. needed?\n{\n    //@notice day: incremented daily by keeper, number of days since start\n    ///@dev day: used as position selector range narrower\n    uint16 public day;\n    //@notice posId: position ID incremented on position creation\n    uint32 public posId;\n    //@notice isActive: used for fast checking return scope for dApp render\n    mapping(address => bool) public isActive;\n    //@notice dayPricePositions: used to add and retrieve position ID in price-day matrix\n    mapping(uint16 => mapping(uint32 => uint32[])) public dayPriceGetPositions;\n    //@notice endDateWinners: used to collect possitions that will get rewarded at the end of cycle\n    ///@dev refactoring will be lots of 'fun'\n    //mapping(uint16 => uint32[]) public endDateWinners;\n    //@notice isPositionInWinArray: to avoid duplicate entry of PositionID in endDateWinners[enddate] uint32[]\n    mapping(uint32 => bool) public isPositionInWinArray;\n    //@notice getPositionById\n    mapping(uint32 => Position) public getPositionById;\n    //@notice check if user has position for submitted timeframe: userHasTimeEndPosition[msg.sender][_enddate]\n    ///@dev temporary limitation, re-asses\n    mapping(address => mapping(uint16 => bool)) public userHasTimeEndPosition;\n\n    //@notice userPositions: get all positions of msg.sender\n    mapping(address => uint32[]) public userPositions;\n\n    //@notice tvl of day-price matrix cell, used to determine share of winnings. @security: review\n    mapping(uint16 => mapping(uint64 => uint128)) public dayPriceTVL;\n\n    //mapping(uint16 => uint32) public endDayBudget;\n\n    mapping(address => uint256) public userWinnings;\n\n    uint64 public lastETHPrice;\n    uint256 immutable MINVALUE;\n    uint256 immutable UPKEEPBLOCKDISTANCE;\n    uint64 lastUpkeep;\n    uint80 lastRoundId;\n\n    //@notice Accurate reflaction of user base value(s) sum\n    mapping(address => uint256) public userDepositedDai;\n    ///@notice totalDepositedDai: lifetime metric. No decrement.\n    uint128 public totalDepositedDai;\n\n    AggregatorV3Interface internal priceFeed;\n    ///@dev: @TODO position owner change on NFT transfer (maybe)\n    struct Position {\n        uint32 id;\n        address owner;\n        uint32[30] graph;\n        uint16 start;\n        uint16 end;\n        uint16 shares;\n        uint128 baseValue;\n        string imghash;\n    }\n\n    /* =========== AaveSly State ============= */\n\n    ///@dev replace hardcoded with contract address provider interface\n    IERC20 public dai = IERC20(0x001B3B4d0F3714Ca98ba10F6042DaEbF0B1B7b6F);\n    IaToken public aToken = IaToken(0x639cB7b21ee2161DF9c882483C9D55c90c20Ca3e);\n    IAaveLendingPool public aaveLendingPool =\n        IAaveLendingPool(0x9198F13B08E299d85E096929fA9781A1E3d5d827);\n\n    //ISuperTokenFactory public superTokenFactory = ISuperTokenFactory(0x200657E2f123761662567A1744f9ACAe50dF47E6);\n    //ISuperfluidToken aTokenX;\n\n    // supertokenfactory mumbai 0x200657E2f123761662567A1744f9ACAe50dF47E6\n    // aave pool mumbai -  0x9198F13B08E299d85E096929fA9781A1E3d5d827\n    // aave stable interest: 0x10dec6dF64d0ebD271c8AdD492Af4F5594358919\n    // aave variable interest: 0x6D29322ba6549B95e98E9B08033F5ffb857f19c5\n    // polygon contracts: https://docs.aave.com/developers/deployed-contracts/matic-polygon-market\n\n    //@notice owner set to msg.sender on create\n    constructor() ERC721(\"SlyDe.Fi\", \"SLYDE\") {\n        day = 1;\n        posId = 1;\n\n        ///@dev the oracle price uses 8 decimals\n        ///@dev MINVALUE should be constant or in\n        MINVALUE = 1000 * 10**18;\n        UPKEEPBLOCKDISTANCE = 5757;\n        lastUpkeep = 1;\n\n        //@notice EXTERNAL CALLS\n        // dai.approve(address(aaveLendingPool), type(uint256).max);\n        priceFeed = AggregatorV3Interface(\n            0x0715A7794a1dc8e42615F059dD6e406A6594651A\n        );\n    }\n\n    //* --- Initialize **//\n\n    ///this should be in constructor.\n    function setERCAllowance(address _erc) public onlyOwner returns (bool) {\n        if (_erc == address(0)) {\n            _erc = address(dai);\n        }\n\n        IERC20(_erc).approve(address(aaveLendingPool), type(uint256).max);\n\n        return true;\n    }\n\n    //*--- Fallback ---*//\n    receive() external payable {}\n\n    fallback() external {}\n\n    //*--- Errors ---*//\n\n    ///@notice used for when user input value smaller than constant MINVALUE\n    error SmallerThanMin(uint256 requested, uint256 required);\n    //@TO DO: ensure custom timeframe compatibility\n    ///@notice error if user has already submitted a position for the same timeframe or, same enddate\n    error UserAlreadyHasPositionEndingOnThisDay(uint16 endDay, address user);\n    ///@notice error only if performUpkeep in progress or perfomed without check\n    error DoingUpkeepOrNoCheck(uint256 thisblock, uint256 lastblock);\n\n    //*--- Modifiers ---*//\n    modifier ensureUniqueForEnd(uint16 _endsOn) {\n        bool timeRangeNotEmpty = userHasTimeEndPosition[msg.sender][_endsOn];\n        if (timeRangeNotEmpty)\n            revert UserAlreadyHasPositionEndingOnThisDay({\n                endDay: _endsOn,\n                user: msg.sender\n            });\n        _;\n    }\n\n    ///@param _statedValue: provided in submitPosition() call by user as value of position\n    modifier ercMinVal(uint256 _statedValue) {\n        if (_statedValue < MINVALUE)\n            revert SmallerThanMin({\n                requested: _statedValue,\n                required: MINVALUE\n            });\n        _;\n    }\n\n    //*--- External ---*//\n    //@notice submitPosition(): creates position, transfers dai, mints nft, changes state\n    ///#if_succeeds msg.sender != _to ==> old(X) == _balances[_to];\n    function submitPosition(\n        uint32[30] memory _graph,\n        uint128 _value,\n        uint16 _end,\n        string calldata _imghash\n    )\n        external\n        payable\n        nonReentrant\n        ensureUniqueForEnd(_end)\n        ercMinVal(_value)\n        returns (bool)\n    {\n        Position memory currentPosition;\n        uint16 _start = day + 1;\n\n        currentPosition = Position({\n            id: posId,\n            owner: msg.sender,\n            graph: _graph,\n            start: _start,\n            end: _start + _end,\n            shares: 0,\n            baseValue: _value,\n            imghash: _imghash\n        });\n\n        uint256 beforeDai = dai.balanceOf(address(this));\n        require(beforeDai >= currentPosition.baseValue);\n\n        aaveLendingPool.deposit(\n            address(dai),\n            currentPosition.baseValue,\n            address(this),\n            0\n        );\n\n        userPositions[msg.sender].push(currentPosition.id);\n        getPositionById[currentPosition.id] = currentPosition;\n        //dayPresentCapital[end] += currentPosition.baseValue;\n        userHasTimeEndPosition[msg.sender][currentPosition.end] = true;\n        if (!isActive[msg.sender]) isActive[msg.sender] = true;\n\n        ///@dev is this safe? memory>struct>array\n        ///@dev SWC-110. Out of bounds array access? check. I say false positive.\n        for (uint16 i = 0; i < currentPosition.graph.length; i++) {\n            dayPriceGetPositions[currentPosition.start + i][\n                currentPosition.graph[i]\n            ].push(posId);\n            dayPriceTVL[currentPosition.start + i][\n                currentPosition.graph[i]\n            ] += currentPosition.baseValue;\n        }\n        totalDepositedDai += currentPosition.baseValue;\n        userDepositedDai[msg.sender] += currentPosition.baseValue;\n        safeMint(msg.sender, posId);\n\n        _setTokenURI(posId, currentPosition.imghash);\n\n        require(ownerOf(posId) == msg.sender, \"Mint Unnsuccessful\");\n\n        posId += 1;\n\n        return true;\n    }\n\n    ///@dev revert on receive() ?\n    function withdraw(address _beneficiary) public onlyOwner {\n        (bool success, ) = payable(_beneficiary).call{\n            value: address(this).balance\n        }(\"\");\n        require(success, \"transfer failed\");\n    }\n\n    /////@param roundId: The round ID.\n    /////@param price: The price.\n    /////@param startedAt: Timestamp of when the round started.\n    /////@param timestamp: Timestamp of when the round was updated.\n    /////@param answeredInRound: The round ID of the round in which the answer was computed.\n    ///@dev external chainlink keeper call. calldata not used. remove. @security public function\n    function performUpkeep(\n        bytes calldata /* performData */\n    ) public {\n        ///@dev external chainlink call\n        (uint80 roundID, int256 price, , , ) = priceFeed.latestRoundData();\n\n        uint256 price2 = uint256(price);\n        if (\n            lastRoundId == roundID ||\n            (block.number - lastUpkeep) < UPKEEPBLOCKDISTANCE\n        )\n            revert DoingUpkeepOrNoCheck({\n                thisblock: block.number,\n                lastblock: lastUpkeep\n            });\n\n        lastUpkeep = uint64(block.number);\n\n        lastETHPrice = uint64(price2) / 100000000;\n        uint32[] memory winners = dayPriceGetPositions[day][\n            uint32(lastETHPrice)\n        ];\n\n        //@notice asignes shares per winning day position if any\n        ///@dev @security: potentianl attack vector: pump dayPriceTVL by create + burn loop -> disproportionate share distribution?? what incentive?\n        for (uint256 i = 0; i < winners.length; i++) {\n            Position storage winner = getPositionById[winners[i]];\n            if (winner.id == 0) continue;\n            winner.shares = uint16(\n                (winner.baseValue * 100) / dayPriceTVL[day][lastETHPrice] + 1\n            );\n\n            isPositionInWinArray[winner.id] = true;\n\n            //redeamableEndShares[winner.end] += winner.shares;\n\n            uint256 budget = (aToken.balanceOf(address(this)) -\n                totalDepositedDai) / 31;\n            userWinnings[winner.owner] += (budget / 100) * winner.shares;\n            //@notice skimming or financing a treasury or for vc:\n            //@notice charging a money walking service fee\n            ///@dev streaming onWin. pro/cons to enday pull payout.\n        }\n        lastRoundId = roundID;\n        day += 1;\n    }\n\n    ///@dev @TODO: fix this. unnecessary memory operations.\n    function checkUpkeep(\n        bytes calldata /* checkData */\n    )\n        public\n        view\n        override(KeeperCompatibleInterface)\n        returns (bool upkeepNeeded, bytes memory upkeepData)\n    {\n        if ((block.number - lastUpkeep) > UPKEEPBLOCKDISTANCE) {\n            upkeepNeeded = true;\n            upkeepData;\n        } else {\n            upkeepNeeded = false;\n            upkeepData;\n        }\n    }\n\n    //*--- Public ---*//\n    ///@notice burns ERC721, credits base value of underlying position. Returns true if successful.\n    ///@param _tokenIdtoBurn: The token ID of the requested token to burn.;\n    function burnToken(uint256 _tokenIdtoBurn)\n        public\n        nonReentrant\n        returns (bool)\n    {\n        //@dev uint32 implicit conversion might be @security risk\n        Position memory burnablePosition = getPositionById[\n            uint32(_tokenIdtoBurn)\n        ];\n\n        require(\n            burnablePosition.owner == msg.sender,\n            \"Burning a token you do not own\"\n        );\n\n        burn(_tokenIdtoBurn);\n\n        aaveLendingPool.withdraw(\n            address(dai),\n            burnablePosition.baseValue,\n            msg.sender\n        );\n\n        for (uint32 i = 0; i < userPositions[msg.sender].length; i++) {\n            if (userPositions[msg.sender][i] == _tokenIdtoBurn) {\n                ///@dev inplace storage gap\n                delete userPositions[msg.sender][i];\n                break;\n            }\n        }\n\n        userDepositedDai[msg.sender] -= burnablePosition.baseValue;\n        ///@dev @security: potential fix for day_tvl loop. implies aditional check.\n        getPositionById[burnablePosition.id].id = 0;\n\n        return true;\n    }\n\n    ///@dev @TODO: this should be a stream conditional on continuation of underlying position principal.\n    ///@dev @TODO: this should take in as argument the type of asset liquidated. (e.g. ETH, DAI, DOG, CAT etc.)\n    function withdrawWinnings() public payable nonReentrant {\n        require(userWinnings[msg.sender] > 0);\n\n        uint256 prevUserDai = dai.balanceOf(msg.sender);\n\n        aaveLendingPool.withdraw(\n            address(dai),\n            userWinnings[msg.sender],\n            msg.sender\n        );\n\n        require(prevUserDai < dai.balanceOf(msg.sender), \"Withdrawal failed\");\n        userWinnings[msg.sender] = 0;\n    }\n\n    function pause() public onlyOwner {\n        _pause();\n    }\n\n    function unpause() public onlyOwner {\n        _unpause();\n    }\n\n    // The following functions are overrides required by Solidity.\n\n    function supportsInterface(bytes4 interfaceId)\n        public\n        view\n        override(ERC721)\n        returns (bool)\n    {\n        return super.supportsInterface(interfaceId);\n    }\n\n    //*--- Internal ---*//\n    // function _baseURI() internal pure override returns (string memory) {\n    //     return \"https://slyde.fi\";\n    // }\n\n    function safeMint(address to, uint256 tokenId) internal {\n        _safeMint(to, tokenId);\n    }\n\n    function _beforeTokenTransfer(\n        address from,\n        address to,\n        uint256 tokenId\n    ) internal override(ERC721) whenNotPaused {\n        super._beforeTokenTransfer(from, to, tokenId);\n    }\n\n    /* --- override some more --- */\n    function _burn(uint256 tokenId)\n        internal\n        override(ERC721, ERC721URIStorage)\n    {\n        super._burn(tokenId);\n    }\n\n    function tokenURI(uint256 tokenId)\n        public\n        view\n        override(ERC721, ERC721URIStorage)\n        returns (string memory)\n    {\n        return super.tokenURI(tokenId);\n    }\n\n    /* ===========   ============= */\n\n    //*--- Private ---*//\n\n    //*--- View ---*//\n\n    function isUserActive(address _who) public view returns (bool) {\n        return isActive[_who];\n    }\n\n    function getUserPositions(address _who)\n        public\n        view\n        returns (uint32[] memory positionIDs)\n    {\n        positionIDs = userPositions[_who];\n    }\n\n    function getsPosition(uint32 _id)\n        public\n        view\n        returns (Position memory position)\n    {\n        position = getPositionById[_id];\n    }\n}\n",
  "sourcePath": "/home/pbdesk2/Desktop/github/slyDeFi_truffle/contracts/SlyDeFi.sol",
  "compiler": {
    "name": "solc",
    "version": "0.8.10+commit.fc410830.Emscripten.clang"
  },
  "schemaVersion": "3.4.3",
  "updatedAt": "2021-11-25T16:00:13.782Z",
  "networkType": "ethereum",
  "devdoc": {
    "kind": "dev",
    "methods": {
      "approve(address,uint256)": {
        "details": "See {IERC721-approve}."
      },
      "balanceOf(address)": {
        "details": "See {IERC721-balanceOf}."
      },
      "burn(uint256)": {
        "details": "Burns `tokenId`. See {ERC721-_burn}. Requirements: - The caller must own `tokenId` or be an approved operator."
      },
      "burnToken(uint256)": {
        "params": {
          "_tokenIdtoBurn": ": The token ID of the requested token to burn.;"
        }
      },
      "checkUpkeep(bytes)": {
        "details": "@TODO: fix this. unnecessary memory operations."
      },
      "getApproved(uint256)": {
        "details": "See {IERC721-getApproved}."
      },
      "isApprovedForAll(address,address)": {
        "details": "See {IERC721-isApprovedForAll}."
      },
      "name()": {
        "details": "See {IERC721Metadata-name}."
      },
      "owner()": {
        "details": "Returns the address of the current owner."
      },
      "ownerOf(uint256)": {
        "details": "See {IERC721-ownerOf}."
      },
      "paused()": {
        "details": "Returns true if the contract is paused, and false otherwise."
      },
      "performUpkeep(bytes)": {
        "details": "external chainlink keeper call. calldata not used. remove. @security public function"
      },
      "renounceOwnership()": {
        "details": "Leaves the contract without owner. It will not be possible to call `onlyOwner` functions anymore. Can only be called by the current owner. NOTE: Renouncing ownership will leave the contract without an owner, thereby removing any functionality that is only available to the owner."
      },
      "safeTransferFrom(address,address,uint256)": {
        "details": "See {IERC721-safeTransferFrom}."
      },
      "safeTransferFrom(address,address,uint256,bytes)": {
        "details": "See {IERC721-safeTransferFrom}."
      },
      "setApprovalForAll(address,bool)": {
        "details": "See {IERC721-setApprovalForAll}."
      },
      "supportsInterface(bytes4)": {
        "details": "See {IERC165-supportsInterface}."
      },
      "symbol()": {
        "details": "See {IERC721Metadata-symbol}."
      },
      "transferFrom(address,address,uint256)": {
        "details": "See {IERC721-transferFrom}."
      },
      "transferOwnership(address)": {
        "details": "Transfers ownership of the contract to a new account (`newOwner`). Can only be called by the current owner."
      },
      "withdraw(address)": {
        "details": "revert on receive() ?"
      },
      "withdrawWinnings()": {
        "details": "@TODO: this should be a stream conditional on continuation of underlying position principal.@TODO: this should take in as argument the type of asset liquidated. (e.g. ETH, DAI, DOG, CAT etc.)"
      }
    },
    "stateVariables": {
      "dai": {
        "details": "replace hardcoded with contract address provider interface"
      },
      "day": {
        "details": "day: used as position selector range narrower"
      },
      "isPositionInWinArray": {
        "details": "refactoring will be lots of 'fun'"
      },
      "userHasTimeEndPosition": {
        "details": "temporary limitation, re-asses"
      }
    },
    "version": 1
  },
  "userdoc": {
    "errors": {
      "DoingUpkeepOrNoCheck(uint256,uint256)": [
        {
          "notice": "error only if performUpkeep in progress or perfomed without check"
        }
      ],
      "SmallerThanMin(uint256,uint256)": [
        {
          "notice": "used for when user input value smaller than constant MINVALUE"
        }
      ],
      "UserAlreadyHasPositionEndingOnThisDay(uint16,address)": [
        {
          "notice": "error if user has already submitted a position for the same timeframe or, same enddate"
        }
      ]
    },
    "kind": "user",
    "methods": {
      "burnToken(uint256)": {
        "notice": "burns ERC721, credits base value of underlying position. Returns true if successful."
      },
      "setERCAllowance(address)": {
        "notice": "this should be in constructor."
      },
      "submitPosition(uint32[30],uint128,uint16,string)": {
        "notice": "#if_succeeds msg.sender != _to ==> old(X) == _balances[_to];"
      },
      "totalDepositedDai()": {
        "notice": "totalDepositedDai: lifetime metric. No decrement."
      }
    },
    "version": 1
  }
}